:100000000C9462000C948E050C9467050C948A0085
:100010000C948A000C948A000C948A000C948A0038
:100020000C948A000C948A000C948A000C948A0028
:100030000C948A000C948A000C948A000C948A0018
:100040000C941D050C948A000C94DB050C94B505EA
:100050000C948A000C948A000C948A000C948A00F8
:100060000C940D060C948A00000000002400270068
:100070002A0000000000250028002B0000000000DE
:1000800023002600290004040404040404040202DA
:100090000202020203030303030301020408102007
:1000A0004080010204081020010204081020000012
:1000B0000008000201000003040700000000000027
:1000C00000002C0711241FBECFEFD8E0DEBFCDBF4C
:1000D00011E0A0E0B1E0E2E1F9E102C005900D928B
:1000E000AA3AB107D9F723E0AAEAB1E001C01D920C
:1000F000AA33B207E1F710E0C2E6D0E004C02197CE
:10010000FE010E94720CC136D107C9F70E94740724
:100110000C94870C0C940000833081F028F481301B
:1001200099F08230A9F008958730A9F08830C9F09D
:100130008430B1F4809180008F7D03C08091800075
:100140008F7780938000089584B58F7784BD08955C
:1001500084B58F7DFBCF8091B0008F778093B00006
:1001600008958091B0008F7DF9CFCF93DF93282F32
:1001700030E0F901E255FF4F8491F901E656FF4F57
:10018000D491F901EA57FF4FC491CC23A1F081111A
:100190000E948C00EC2FF0E0EE0FFF1FE458FF4FA1
:1001A000A591B491EC91ED2381E090E009F480E019
:1001B000DF91CF91089580E090E0FACF1F93CF9325
:1001C000DF93282F30E0F901E255FF4F8491F901C8
:1001D000E656FF4FD491F901EA57FF4FC491CC2363
:1001E000A9F0162F81110E948C00EC2FF0E0EE0F89
:1001F000FF1FEE58FF4FA591B4918FB7F894EC9183
:10020000111108C0D095DE23DC938FBFDF91CF9111
:100210001F910895DE2BF8CFCF93DF9390E0FC0180
:10022000E656FF4F24918A579F4FFC018491882303
:10023000D1F090E0880F991FFC01E859FF4FA5917C
:10024000B491FC01EE58FF4FC591D49161110EC0DD
:100250009FB7F8948C91E22FE0958E238C932881A0
:10026000E223E8839FBFDF91CF9108958FB7F89481
:10027000EC91E22BEC938FBFF6CF3FB7F8948091CF
:10028000810290918202A0918302B091840226B5EE
:10029000A89B05C02F3F19F00196A11DB11D3FBFBE
:1002A000BA2FA92F982F8827BC01CD01620F711D8D
:1002B000811D911D42E0660F771F881F991F4A9587
:1002C000D1F708958F929F92AF92BF92CF92DF9213
:1002D000EF92FF924B015C010E943D016B017C019A
:1002E0000E943D016C197D098E099F09683E73408B
:1002F00081059105A8F321E0821A9108A108B108AF
:1003000088EEC80E83E0D81EE11CF11C8114910414
:10031000A104B10429F7FF90EF90DF90CF90BF9038
:10032000AF909F908F9008950895AF92BF92CF9213
:10033000DF92EF92FF920F931F93CF93DF936C01A5
:100340007B018B01040F151FEB015E01AE18BF0886
:10035000C017D10759F06991D601ED91FC91019038
:10036000F081E02DC6010995892B79F7C501DF9150
:10037000CF911F910F91FF90EF90DF90CF90BF90A2
:10038000AF90089580916A0290916B0201969093CC
:100390006B0280936A02089508950895FC01538DBD
:1003A000448D252F30E0842F90E0821B930B54174F
:1003B00010F0CF96089501970895FC01918D828DDC
:1003C000981761F0A28DAE0FBF2FB11D5D968C9175
:1003D000928D9F5F9F73928F90E008958FEF9FEFB4
:1003E0000895FC01918D828D981731F0828DE80F70
:1003F000F11D858D90E008958FEF9FEF0895FC012A
:10040000918D228D892F90E0805C9F4F821B9109F6
:100410008F739927089585E892E00E94FF0121E0FB
:10042000892B09F420E0822F089580E090E0892B49
:1004300029F00E940B0281110C9400000895FC0128
:10044000A48DA80FB92FB11DA35ABF4F2C91848D35
:1004500090E001968F739927848FA689B7892C9392
:10046000A089B1898C91837080648C93938D848DE5
:10047000981306C00288F389E02D80818F7D8083E8
:100480000895EF92FF920F931F93CF93DF93EC01A8
:1004900081E0888F9B8D8C8D98131AC0E889F9892B
:1004A000808185FF15C09FB7F894EE89FF8960832E
:1004B000E889F98980818370806480839FBF81E0AF
:1004C00090E0DF91CF911F910F91FF90EF900895F1
:1004D000F62E0B8D10E00F5F1F4F0F731127E02ECC
:1004E0008C8D8E110CC00FB607FCFACFE889F98904
:1004F000808185FFF5CFCE010E941F02F1CFEB8DE9
:10050000EC0FFD2FF11DE35AFF4FF0829FB7F894D7
:100510000B8FEA89FB8980818062CFCFCF93DF93F5
:10052000EC01888D8823B9F0AA89BB89E889F9890B
:100530008C9185FD03C0808186FD0DC00FB607FC40
:10054000F7CF8C9185FFF2CF808185FFEDCFCE0173
:100550000E941F02E9CFDF91CF91089585ED80932E
:10056000BC008091BC0084FDFCCF1092590208951C
:1005700020910C02260F3327331F21323105ECF472
:1005800020915902FC0190E080E0243069F082E083
:100590000895A0910C022191AC0144515E4FA40F2B
:1005A000B52FB11D2C930196861798F380910C02FC
:1005B000680F60930C0280E0089581E0089508952B
:1005C000E0915D0280915C02E81730F4F0E0E453C2
:1005D000FE4F808190E008958FEF9FEF08959091F6
:1005E0005D0280915C022FEF3FEF981748F4E92FEE
:1005F000F0E0E453FE4F208130E09F5F90935D0276
:10060000C901089580915C0290915D02891B990B4C
:100610000895CF92DF92EF92FF920F931F93CF93A3
:10062000DF937C01CB018A012091CB01222389F049
:10063000EB016B01C40ED51ECC15DD0569F0699187
:10064000D701ED91FC910190F081E02DC701099552
:10065000F3CF642F0E94B802C801DF91CF911F91A0
:100660000F91FF90EF90DF90CF900895CF93DF939D
:100670001F92CDB7DEB769832091CB012223F9F019
:1006800020915A02203258F021E030E0FC013383FF
:10069000228390E080E00F90DF91CF9108958091C8
:1006A0005B02E82FF0E0E555FE4F998190838F5F64
:1006B00080935B0280935A0281E090E0ECCF61E08E
:1006C000CE0101960E94B802F7CFCF93FC01C481FE
:1006D00021E02093CB01C093AA0110925B021092FB
:1006E0005A028385682B82E293E00E943603909140
:1006F0005A02913208F03FC0809159028111FCCF1B
:1007000082E08093590281E0809358028FEF8093BA
:100710002F021092510290935002ABEAB1E0E0E355
:10072000F2E080E098132FC01092520280915202A2
:10073000CC0FC82BC093520280915702813039F5FB
:1007400010925702809152028093BB008091BC00AE
:1007500083FDF8CF85EC8093BC00809159028230F4
:10076000E1F380912F028F3F31F080912F02803290
:1007700011F080912F0210925B0210925A02109297
:10078000CB01CF9108952D9121938F5FCBCF85EE33
:10079000E2CF089590E080E008958F929F92AF920B
:1007A000BF920F931F93CF93DF93CDB7DEB7A1977F
:1007B0000FB6F894DEBF0FBECDBF19A2423008F4C9
:1007C0004AE08E010F5D1F4F842E912CB12CA12C7D
:1007D000A50194010E94120CE62FB901CA01EA306A
:1007E00044F5E05DD801EE938D01232B242B252BBE
:1007F00079F790E080E0109769F0FD01019000200A
:10080000E9F73197AF014A1B5B0BBD018EE293E024
:100810000E949501A1960FB6F894DEBF0FBECDBF22
:10082000DF91CF911F910F91BF90AF909F908F90CC
:100830000895E95CD7CFFC0101900020E9F73197DA
:10084000AF01481B590BBC018EE293E00C9495015B
:100850000F931F93CF938C01C62F0E9465036C2FBB
:100860006460C8010E9465036C2F6B7FC8010E9401
:10087000650383EC90E00197F1F7CF911F910F9101
:1008800008950F931F93CF93DF938C01D62FC42F1E
:10089000607F642B0E94280480E1D89FB00111245E
:1008A0006C2BC801DF91CF911F910F910C942804FC
:1008B00040E061E08EE293E00E9441048BE39FE11F
:1008C0000197F1F70895CF93DF93CDB7DEB728975F
:1008D0000FB6F894DEBF0FBECDBF98E0E6E0F1E0C2
:1008E000DE01119601900D929A95E1F790913603F1
:1008F000961708F46FEF262F30E0220F331F41E0E8
:1009000050E04C0F5D1F240F351FF9016081680F07
:10091000606840E08EE293E028960FB6F894DEBF60
:100920000FBECDBFDF91CF910C944104CF93DF93E5
:10093000823028F090913303986090933303809332
:10094000360362E370E080E090E00E946201609113
:1009500039038EE293E00E94650368EE73E080E065
:1009600090E00E94620160E38EE293E00E9428041E
:10097000CBE4D6E4CE010197F1F760E38EE293E099
:100980000E9428042197F1F760E38EE293E00E9431
:10099000280483E592E00197F1F760E28EE293E0AC
:1009A0000E94280460913303606240E08EE293E08D
:1009B0000E94410484E08093340340E06CE08EE2C6
:1009C00093E00E9441040E94580482E08093350322
:1009D00040E066E08EE293E00E94410440E062E085
:1009E0008EE293E00E9441048BE39FE10197F1F7CF
:1009F000DF91CF91089541E00E94410481E090E0B1
:100A00000895CF92DF92EF92FF926B017C0141E05B
:100A10006DE28EE293E00E94410466277727CB01C6
:100A20006C197D098E099F094AE00E94CD03019649
:100A3000FF90EF90DF90CF9008951F920F920FB626
:100A40000F9211242F933F938F939F93AF93BF9354
:100A500080917D0290917E02A0917F02B0918002F0
:100A600030917C0223E0230F2D3758F50196A11D0C
:100A7000B11D20937C0280937D0290937E02A0930F
:100A80007F02B09380028091810290918202A091B6
:100A90008302B09184020196A11DB11D8093810251
:100AA00090938202A0938302B0938402BF91AF918E
:100AB0009F918F913F912F910F900FBE0F901F909C
:100AC000189526E8230F0296A11DB11DD2CF1F92C3
:100AD0000F920FB60F9211242F933F934F935F9372
:100AE0006F937F938F939F93AF93BF93EF93FF93F6
:100AF000E0910401F09105010995FF91EF91BF91FB
:100B0000AF919F918F917F916F915F914F913F91A5
:100B10002F910F900FBE0F901F9018951F920F925C
:100B20000FB60F9211242F933F934F935F936F93C0
:100B30007F938F939F93AF93BF93EF93FF93E09136
:100B40000201F09103010995FF91EF91BF91AF91DF
:100B50009F918F917F916F915F914F913F912F91D5
:100B60000F900FBE0F901F9018951F920F920FB607
:100B70000F9211242F933F934F935F936F937F9323
:100B80008F939F93AF93BF93EF93FF9385E892E08A
:100B90000E941F02FF91EF91BF91AF919F918F91A2
:100BA0007F916F915F914F913F912F910F900FBE69
:100BB0000F901F9018951F920F920FB60F9211244D
:100BC0002F938F939F93EF93FF93E0919502F09172
:100BD00096028081E0919B02F0919C0282FD1BC0F5
:100BE000908180919E028F5F8F7320919F02821768
:100BF00041F0E0919E02F0E0EB57FD4F958F80931E
:100C00009E02FF91EF919F918F912F910F900FBEB8
:100C10000F901F9018958081F4CF1F920F920FB6FE
:100C20000F9211242F933F934F935F936F937F9372
:100C30008F939F93AF93BF93EF93FF938091B900EE
:100C4000887F803609F44AC0F0F5883209F4A7C0DD
:100C500018F5803109F49BC0B8F4882309F4F9C071
:100C6000883009F494C0FF91EF91BF91AF919F91AB
:100C70008F917F916F915F914F913F912F910F9045
:100C80000FBE0F901F901895883109F488C08032EC
:100C900051F780932F0214C0803409F49DC040F4B2
:100CA0008033B9F38833F9F680932F0285ECB0C016
:100CB000803509F485C0883509F496C0883499F6E2
:100CC0000E94AE02D0CF883909F48CC038F588373D
:100CD00029F050F4883611F0803729F683E08093AC
:100CE000590210922E0257C0883809F47BC080390F
:100CF00019F0803809F0B7CF80912E02803208F0C9
:100D000071C0E0912E0281E08E0F80932E028091BF
:100D1000BB00F0E0E25FFD4F80833DC0803B39F0D7
:100D2000E0F4803A09F479C0883A09F09CCF84E075
:100D30008093590210920D0210920C02E09155021C
:100D4000F0915602099580910C0281110FC081E04B
:100D500080930C021092EC0109C0803C09F4A6CFEC
:100D6000883C09F4A3CF883B09F07DCFE0910D02C8
:100D700081E08E0F80930D02F0E0E451FE4F808100
:100D80008093BB0090910D0280910C0229C080914C
:100D900052028093BB0085EC8093BC0064CF90919D
:100DA000510280915002981758F5E091510281E06C
:100DB0008E0F80935102F0E0E05DFD4F8081E9CF1E
:100DC000E091510281E08E0F809351028091BB002F
:100DD000F0E0E05DFD4F80839091510280915002E0
:100DE0009817C8F285E8D8CFE091510281E08E0FC4
:100DF000809351028091BB00F0E0E05DFD4F808365
:100E00008091580281115CCF81E08093570284EA7F
:100E10008093BC001092590226CF85EC8093BC00D1
:100E20001092590280912E02803230F4E0912E020D
:100E3000F0E0E25FFD4F108260912E0270E0E091E1
:100E40005302F09154028EE092E0099510922E0226
:100E50000ACF10922F0234CFE5E8F2E0138212821B
:100E600088EE93E0A0E0B0E084839583A683B78307
:100E700022E131E03183208325EC30E0358724877F
:100E800024EC30E03787268720EC30E0318B208B54
:100E900021EC30E0338B228B22EC30E0358B248B3D
:100EA00026EC30E0378B268B118E128E138E148E2B
:100EB000E2E2F3E01382128284839583A683B783F0
:100EC00084E291E091838083EEE2F3E01382128268
:100ED00086E391E0918380838FE3848380E181873F
:100EE00082E0828713860895789484B5826084BDF9
:100EF00084B5816084BD85B5826085BD85B581601E
:100F000085BD80916E00816080936E00109281009B
:100F10008091810082608093810080918100816056
:100F20008093810080918000816080938000809117
:100F3000B10084608093B1008091B00081608093A3
:100F4000B00080917A00846080937A0080917A006A
:100F5000826080937A0080917A00816080937A0029
:100F600080917A00806880937A001092C100E091AD
:100F70009502F091960282E08083E0919102F091D7
:100F800092021082E0919302F09194028FEC8083A0
:100F900010929D02E0919902F0919A0286E080837E
:100FA000E0919702F0919802808180618083E091C6
:100FB0009702F0919802808188608083E091970287
:100FC000F0919802808180688083E0919702F0918F
:100FD000980280818F7D808360E08CE00E940C010C
:100FE00061E083E00E940C0160E087E00E940C0158
:100FF00060E088E00E940C0160E08DE00E940C013E
:1010000060E082E00E940C0160E081E10E940C013E
:1010100082E00E94960410925D0210925C0210928F
:101020005B0210925A021092590281E0809358029A
:101030001092570261E082E10E94DE0061E083E1EC
:101040000E94DE008091B9008E7F8093B90080916C
:10105000B9008D7F8093B90088E48093B80085E45F
:101060008093BC008CEC91E09093560280935502E3
:101070008DEC91E0909354028093530210923303CD
:10108000809138030E94960480910001882309F41E
:1010900003C288E08093390360E08EE293E00E940F
:1010A000650360E084E00E9463048EE391E00E94A7
:1010B0001B0468EE73E080E090E00E94620168EE3D
:1010C00073E080E090E00E94620161E081E00E94B4
:1010D000630487E491E00E941B046CED75E080E0FE
:1010E00090E00E9462010E9458046CED75E080E07F
:1010F00090E00E94620160E080E00E94630486E567
:1011000091E00E941B0461E080E00E94630487E696
:1011100091E00E941B0468EB7BE080E090E00E947D
:1011200062010E94580482EC91E090930301809345
:101130000201809169008C7F816080936900E89A48
:1011400061E083E00E940C0161E083E00E94DE0028
:1011500088248A9483E0982E99EB292E90E0392EEA
:1011600020E0E22E20E0F22E03E010E034E9C32E6E
:1011700031E0D32E42ECA42E41E0B42E2FB7F894E8
:1011800080917D0290917E02A0917F02B0918002B9
:101190002FBF8093780290937902A0937A02B09344
:1011A0007B0287E00E94B500892B49F08091000105
:1011B000909101014497909301018093000188E090
:1011C0000E94B500892B49F08091000190910101A6
:1011D000449790930101809300018CE00E94B50038
:1011E000892B41F461E083E00E940C0161E083E01F
:1011F0000E94DE0023E420937C0080917A008064CA
:1012000080937A0080917A0086FDFCCF80917800EF
:1012100020917900322F282F44E6429FC001439F3E
:10122000900D1124B4010E94FE0B7093770260931D
:1012300076028DE00E94B50020917402892B09F49A
:101240002EC1C1E0C0937502211108C01093730232
:10125000009372020E945804C093740280910001AE
:10126000882309F42AC188E08093390360E08EE284
:1012700093E00E94650360E080E00E946304809137
:10128000720290917302181619060CF01CC180911D
:101290007502882309F414C187E791E00E941B04BA
:1012A0008091780290917902A0917A02B0917B02AC
:1012B00040916C0250916D0260916E0270916F02CC
:1012C000841B950BA60BB70B893E9340A105B10576
:1012D0000CF4A1C0E898D0920301C0920201609181
:1012E0006A0270916B02072E000C880B990B2091FB
:1012F00078023091790240917A0250917B024090BD
:101300006C0250906D0260906E0270906F02241912
:101310003509460957090E94340CA0E6BAEE0E942E
:10132000530C6093660270936702809368029093F7
:10133000690261E080E00E946304809172029091F2
:10134000730218161906A4F08FE991E00E941B049D
:1013500060916602709167028091680290916902C3
:1013600097FFD1C00E9401058BE991E00E941B0408
:1013700010926B0210926A02809178029091790229
:10138000A0917A02B0917B0280936C0290936D02DF
:10139000A0936E02B0936F0280917502882381F151
:1013A0008091760290917702092E000CAA0BBB0B5C
:1013B00040916602509167026091680270916902E3
:1013C000841B950BA60BB70B4091620250916302F0
:1013D0006091640270916502480F591F6A1F7B1F5C
:1013E00040936202509363026093640270936502BB
:1013F00080935E0290935F02A0936002B0936102BB
:10140000B0920301A0920201809169008C7F8160FB
:1014100080936900E89A6091760270917702072EB6
:10142000000C880B990B0E94050B23E333E343E286
:1014300050E40E94690B0E94CD0A2B01EB0161E090
:101440008BE00E940C01209709F061C060E08BE006
:101450000E94DE008091720290917302909371025B
:1014600080937002181619062CF40197909373025A
:101470008093720264EF71E080E090E00E9462016C
:10148000E114F10409F47ACE0E940B02882309F4D6
:1014900075CE0E94000072CE10923903FDCD1092DD
:1014A0007502222309F4DACE1093730200937202BC
:1014B0000E94580410927402D1CE10923903D6CEF5
:1014C00084E891E0EBCE8091700290917102181641
:1014D000190614F40E94580482E991E00E941B044A
:1014E0006091760270917702072E000C880B990BA1
:1014F00097FF05C00E9401058BE991E0CFCE4AE03D
:101500000E94CD03F9CF4AE00E94CD032DCFCF3FFB
:10151000D10511F461E09BCFF1018491833019F181
:1015200040F48130B1F08230C9F0C038D10594F771
:101530008DCF873011F1883041F18430B1F780913F
:10154000800080628093800050928B0040928A00DD
:1015500081CF84B5806884BD47BC7CCF84B5806270
:1015600084BD48BC77CF80918000806880938000E4
:1015700050928900409288006DCF8091B0008068C1
:101580008093B0004092B30065CF8091B00080623C
:101590008093B0004092B4005DCF0E94D40A68945A
:1015A000B1110C94630B08950E94480B88F09F576B
:1015B00098F0B92F9927B751B0F0E1F0660F771F77
:1015C000881F991F1AF0BA95C9F714C0B13091F06D
:1015D0000E94620BB1E008950C94620B672F782F84
:1015E0008827B85F39F0B93FCCF386957795679532
:1015F000B395D9F73EF490958095709561957F4F9E
:101600008F4F9F4F0895E89409C097FB3EF4909543
:101610008095709561957F4F8F4F9F4F9923A9F0CB
:10162000F92F96E9BB279395F6958795779567955A
:10163000B795F111F8CFFAF4BB0F11F460FF1BC09E
:101640006F5F7F4F8F4F9F4F16C0882311F096E931
:1016500011C0772321F09EE8872F762F05C06623DF
:1016600071F096E8862F70E060E02AF09A95660F98
:10167000771F881FDAF7880F9695879597F9089551
:1016800057FD9058440F551F59F05F3F71F0479533
:10169000880F97FB991F61F09F3F79F08795089518
:1016A000121613061406551FF2CF4695F1DF08C037
:1016B000161617061806991FF1CF86957105610554
:1016C00008940895E894BB2766277727CB0197F9FC
:1016D00008950E947C0B0C94ED0B0E94DF0B38F0F8
:1016E0000E94E60B20F0952311F00C94D60B0C947D
:1016F000DC0B11240C94630B0E94400B70F3959F3C
:10170000C1F3950F50E0551F629FF001729FBB27F8
:10171000F00DB11D639FAA27F00DB11DAA1F649F94
:101720006627B00DA11D661F829F2227B00DA11D47
:10173000621F739FB00DA11D621F839FA00D611DCD
:10174000221F749F3327A00D611D231F849F600DEE
:10175000211D822F762F6A2F11249F5750409AF017
:10176000F1F088234AF0EE0FFF1FBB1F661F771FA3
:10177000881F91505040A9F79E3F510580F00C946E
:10178000D60B0C94630B5F3FE4F3983ED4F386953D
:1017900077956795B795F795E7959F5FC1F7FE2B0E
:1017A000880F911D9695879597F9089597F99F67EA
:1017B00080E870E060E008959FEF80EC08950024D9
:1017C0000A941616170618060906089500240A94A6
:1017D00012161306140605060895092E0394000C2C
:1017E00011F4882352F0BB0F40F4BF2B11F460FFBB
:1017F00004C06F5F7F4F8F4F9F4F089597FB072E59
:1018000016F4009407D077FD09D00E945E0C07FC07
:1018100005D03EF4909581959F4F08957095619500
:101820007F4F0895A1E21A2EAA1BBB1BFD010DC01C
:10183000AA1FBB1FEE1FFF1FA217B307E407F50780
:1018400020F0A21BB30BE40BF50B661F771F881F5C
:10185000991F1A9469F760957095809590959B01F2
:10186000AC01BD01CF010895052E97FB1EF4009435
:101870000E944B0C57FD07D00E94120C07FC03D0AE
:101880004EF40C944B0C50954095309521953F4F5C
:101890004F4F5F4F089590958095709561957F4F5C
:1018A0008F4F9F4F08950E94780CA59F900DB49F75
:1018B000900DA49F800D911D11240895AA1BBB1BA0
:1018C00051E107C0AA1FBB1FA617B70710F0A61B40
:1018D000B70B881F991F5A95A9F780959095BC0161
:1018E000CD010895EE0FFF1F0590F491E02D0994AE
:1018F000A29FB001B39FC001A39F700D811D112451
:10190000911DB29F700D811D1124911D0895F894B1
:02191000FFCF07
:101912008000940194010000400014005400000073
:10192200000041029501CE018E02FF01DD01F101AD
:101932000000000036030903CA03DF020203EF02BC
:10194200E00200000000FB049501CA03C9034E69CE
:101952006E74656E646F004A757374204B696464BB
:10196200696E673A290050494420426F78206279B3
:101972003A6C73636865006E6334312C206A6B6164
:101982006D6D61753937002050494420456E6162A2
:101992006C656400205049442044697361626C653F
:1019A200640020496E7075743A20002020200020C7
:0A19B20041637475616C3A20000077
:00000001FF
