:100000000C9462000C945B050C9434050C948A00EB
:100010000C948A000C948A000C948A000C948A0038
:100020000C948A000C948A000C948A000C948A0028
:100030000C948A000C948A000C948A000C948A0018
:100040000C94EA040C948A000C94A8050C94820584
:100050000C948A000C948A000C948A000C948A00F8
:100060000C94DA050C948A0000000000240027009C
:100070002A0000000000250028002B0000000000DE
:1000800023002600290004040404040404040202DA
:100090000202020203030303030301020408102007
:1000A0004080010204081020010204081020000012
:1000B0000008000201000003040700000000000027
:1000C0000000F50611241FBECFEFD8E0DEBFCDBF84
:1000D00011E0A0E0B1E0E4EDF4E102C005900D9282
:1000E000A037B107D9F722E0A0E7B1E001C01D9227
:1000F000AB3DB207E1F710E0C2E6D0E004C02197C3
:10010000FE010E94620AC136D107C9F70E943D076D
:100110000C94680A0C940000833081F028F481303C
:1001200099F08230A9F008958730A9F08830C9F09D
:100130008430B1F4809180008F7D03C08091800075
:100140008F7780938000089584B58F7784BD08955C
:1001500084B58F7DFBCF8091B0008F778093B00006
:1001600008958091B0008F7DF9CFCF93DF93282F32
:1001700030E0F901E255FF4F8491F901E656FF4F57
:10018000D491F901EA57FF4FC491CC23A1F081111A
:100190000E948C00EC2FF0E0EE0FFF1FE458FF4FA1
:1001A000A591B491EC91ED2381E090E009F480E019
:1001B000DF91CF91089580E090E0FACF1F93CF9325
:1001C000DF93282F30E0F901E255FF4F8491F901C8
:1001D000E656FF4FD491F901EA57FF4FC491CC2363
:1001E000A9F0162F81110E948C00EC2FF0E0EE0F89
:1001F000FF1FEE58FF4FA591B4918FB7F894EC9183
:10020000111108C0D095DE23DC938FBFDF91CF9111
:100210001F910895DE2BF8CFCF93DF9390E0FC0180
:10022000E656FF4F24918A579F4FFC018491882303
:10023000D1F090E0880F991FFC01E859FF4FA5917C
:10024000B491FC01EE58FF4FC591D49161110EC0DD
:100250009FB7F8948C91E22FE0958E238C932881A0
:10026000E223E8839FBFDF91CF9108958FB7F89481
:10027000EC91E22BEC938FBFF6CF1F93CF93DF93DC
:10028000182FEB0161E00E940C01209739F460E027
:10029000812FDF91CF911F910C94DE00CF3FD105CC
:1002A00011F461E0F5CFE12FF0E0E255FF4FE4916A
:1002B000E33031F140F4E130B1F0E230E1F0C03848
:1002C000D1057CF7E4CFE73029F1E83059F1E4308B
:1002D000B1F780918000806280938000D0938B0082
:1002E000C0938A0004C084B5806884BDC7BDDF9117
:1002F000CF911F91089584B5806284BDC8BDF7CFAA
:1003000080918000806880938000D0938900C093A2
:100310008800EDCF8091B00080688093B000C093DA
:10032000B300E5CF8091B00080628093B000C093AD
:10033000B400DDCF3FB7F894809122029091230260
:10034000A0912402B091250226B5A89B05C02F3F9D
:1003500019F00196A11DB11D3FBFBA2FA92F982FEB
:100360008827BC01CD01620F711D811D911D42E0E6
:10037000660F771F881F991F4A95D1F708958F92AE
:100380009F92AF92BF92CF92DF92EF92FF924B017A
:100390005C010E949A016B017C010E949A016C1918
:1003A0007D098E099F09683E734081059105A8F378
:1003B00021E0821A9108A108B10888EEC80E83E0F6
:1003C000D81EE11CF11C81149104A104B10429F789
:1003D000FF90EF90DF90CF90BF90AF909F908F9065
:1003E00008950895AF92BF92CF92DF92EF92FF925D
:1003F0000F931F93CF93DF936C017B018B01040F4D
:10040000151FEB015E01AE18BF08C017D10759F0E8
:100410006991D601ED91FC910190F081E02DC6012A
:100420000995892B79F7C501DF91CF911F910F9124
:10043000FF90EF90DF90CF90BF90AF9008958091A4
:100440000B0290910C02019690930C0280930B0288
:100450000895FC01538D448D252F30E0842F90E0CA
:10046000821B930B541710F0CF96089501970895AF
:10047000FC01918D828D981761F0A28DAE0FBF2F78
:10048000B11D5D968C91928D9F5F9F73928F90E0CE
:1004900008958FEF9FEF0895FC01918D828D98173D
:1004A00031F0828DE80FF11D858D90E008958FEF7A
:1004B0009FEF0895FC01918D228D892F90E0805C43
:1004C0009F4F821B91098F739927089586E292E0CE
:1004D0000E945A0221E0892B09F420E0822F08951E
:1004E00080E090E0892B29F00E94660281110C9433
:1004F00000000895FC01A48DA80FB92FB11DA35AC7
:10050000BF4F2C91848D90E001968F739927848F33
:10051000A689B7892C93A089B1898C918370806456
:100520008C93938D848D981306C00288F389E02DF7
:1005300080818F7D80830895EF92FF920F931F93A8
:10054000CF93DF93EC0181E0888F9B8D8C8D981386
:100550001AC0E889F989808185FF15C09FB7F89492
:10056000EE89FF896083E889F989808183708064DE
:1005700080839FBF81E090E0DF91CF911F910F9129
:10058000FF90EF900895F62E0B8D10E00F5F1F4F38
:100590000F731127E02E8C8D8E110CC00FB607FC47
:1005A000FACFE889F989808185FFF5CFCE010E94D5
:1005B0007A02F1CFEB8DEC0FFD2FF11DE35AFF4FC7
:1005C000F0829FB7F8940B8FEA89FB898081806263
:1005D000CFCFCF93DF93EC01888D8823B9F0AA8920
:1005E000BB89E889F9898C9185FD03C0808186FDEE
:1005F0000DC00FB607FCF7CF8C9185FFF2CF80813D
:1006000085FFEDCFCE010E947A02E9CFDF91CF9135
:10061000089585ED8093BC008091BC0084FDFCCFE3
:100620001092D90108952091B501260F3327331F69
:1006300021323105ECF42091D901FC0190E080E0F9
:10064000243069F082E00895A091B5012191AC01B8
:100650004B565E4FA40FB52FB11D2C9301968617F4
:1006600098F38091B501680F6093B50180E008951B
:1006700081E0089508958FEF9FEF08958FEF9FEF2A
:1006800008958091940190E0919581959109089544
:10069000CF92DF92EF92FF920F931F93CF93DF934E
:1006A0007C01CB018A0120919301222389F0EB0187
:1006B0006B01C40ED51ECC15DD0569F06991D7011B
:1006C000ED91FC910190F081E02DC7010995F3CFE8
:1006D000642F0E941303C801DF91CF911F910F91E6
:1006E000FF90EF90DF90CF900895CF93DF931F920C
:1006F000CDB7DEB76983209193012223F9F02091D1
:100700009201203258F021E030E0FC013383228353
:1007100090E080E00F90DF91CF910895809191015A
:10072000E82FF0E0EF58FE4F998190838F5F809320
:1007300091018093920181E090E0ECCF61E0CE01E5
:1007400001960E941303F7CFCF93FC01C48121E0EF
:1007500020939301C0937001109291011092920125
:100760008385682B83EC92E00E947503909192013F
:10077000913208F03FC08091D9018111FCCF82E015
:100780008093D90181E08093DB018FEF8093D801C2
:100790001092FD019093FC01A1E7B1E0ECEDF1E0D6
:1007A00080E098132FC01092FE018091FE01CC0FC3
:1007B000C82BC093FE018091DA01813039F5109287
:1007C000DA018091FE018093BB008091BC0083FD23
:1007D000F8CF85EC8093BC008091D9018230E1F3A1
:1007E0008091D8018F3F31F08091D801803211F093
:1007F0008091D80110929101109292011092930170
:10080000CF9108952D9121938F5FCBCF85EEE2CFCD
:10081000089590E080E008958F929F92AF92BF92EA
:100820000F931F93CF93DF93CDB7DEB7A1970FB68A
:10083000F894DEBF0FBECDBF19A2423008F44AE0E3
:100840008E010F5D1F4F842E912CB12CA12CA50180
:1008500094010E942A0AE62FB901CA01EA3044F540
:10086000E05DD801EE938D01232B242B252B79F706
:1008700090E080E0109769F0FD0101900020E9F719
:100880003197AF014A1B5B0BBD018FEC92E00E94D8
:10089000F201A1960FB6F894DEBF0FBECDBFDF9177
:1008A000CF911F910F91BF90AF909F908F9008951F
:1008B000E95CD7CFFC0101900020E9F73197AF0147
:1008C000481B590BBC018FEC92E00C94F2010F9382
:1008D0001F93CF938C01C62F0E94A4036C2F6460DA
:1008E000C8010E94A4036C2F6B7FC8010E94A4035F
:1008F00083EC90E00197F1F7CF911F910F9108954C
:100900000F931F93CF93DF938C01D62FC42F607F5B
:10091000642B0E94670480E1D89FB00111246C2BE6
:10092000C801DF91CF911F910F910C94670441E0B2
:100930000E94800481E090E00895CF92DF92EF92D0
:10094000FF926B017C0141E06DE28FEC92E00E942E
:10095000800466277727CB016C197D098E099F09D2
:100960004AE00E940C040196FF90EF90DF90CF9038
:100970000895CF93DF93CDB7DEB728970FB6F894DD
:10098000DEBF0FBECDBF98E0E4E0F1E0DE011196DE
:1009900001900D929A95E1F79091D702981708F47B
:1009A0008FEF90E0880F991F21E030E02C0F3D1F62
:1009B000820F931FFC016081606840E08FEC92E041
:1009C00028960FB6F894DEBF0FBECDBFDF91CF9152
:1009D0000C9480041F920F920FB60F9211242F9344
:1009E0003F938F939F93AF93BF9380911E029091FB
:1009F0001F02A0912002B091210230911D0223E03C
:100A0000230F2D3758F50196A11DB11D20931D020E
:100A100080931E0290931F02A0932002B0932102A4
:100A20008091220290912302A0912402B09125028C
:100A30000196A11DB11D8093220290932302A093E1
:100A40002402B0932502BF91AF919F918F913F9166
:100A50002F910F900FBE0F901F90189526E8230F2F
:100A60000296A11DB11DD2CF1F920F920FB60F9209
:100A700011242F933F934F935F936F937F938F93A3
:100A80009F93AF93BF93EF93FF93E0910201F09197
:100A900003010995FF91EF91BF91AF919F918F91C4
:100AA0007F916F915F914F913F912F910F900FBE6A
:100AB0000F901F9018951F920F920FB60F9211244E
:100AC0002F933F934F935F936F937F938F939F9356
:100AD000AF93BF93EF93FF93E0910001F091010179
:100AE0000995FF91EF91BF91AF919F918F917F9168
:100AF0006F915F914F913F912F910F900FBE0F908B
:100B00001F9018951F920F920FB60F9211242F93DA
:100B10003F934F935F936F937F938F939F93AF9385
:100B2000BF93EF93FF9386E292E00E947A02FF91D7
:100B3000EF91BF91AF919F918F917F916F915F9155
:100B40004F913F912F910F900FBE0F901F901895CE
:100B50001F920F920FB60F9211242F938F939F9392
:100B6000EF93FF93E0913602F09137028081E0919C
:100B70003C02F0913D0282FD1BC0908180913F02BA
:100B80008F5F8F7320914002821741F0E0913F0206
:100B9000F0E0EA5DFD4F958F80933F02FF91EF916A
:100BA0009F918F912F910F900FBE0F901F901895CE
:100BB0008081F4CF1F920F920FB60F9211242F93C2
:100BC0003F934F935F936F937F938F939F93AF93D5
:100BD000BF93EF93FF938091B900887F803609F42B
:100BE0004AC0F0F5883209F4A5C018F5803109F43F
:100BF00099C0B8F4882309F4F5C0883009F492C08C
:100C0000FF91EF91BF91AF919F918F917F916F91E4
:100C10005F914F913F912F910F900FBE0F901F90BA
:100C20001895883109F486C0803251F78093D80135
:100C300014C0803409F49BC040F48033B9F3883386
:100C4000F9F68093D80185ECAEC0803509F483C0F5
:100C5000883509F494C0883499F60E940903D0CFEE
:100C6000883909F48AC038F5883729F050F4883675
:100C700011F0803729F683E08093D9011092D701D3
:100C800055C0883809F479C0803919F0803809F0E6
:100C9000B7CF8091D701803208F06FC0E091D701C3
:100CA00081E08E0F8093D7018091BB00F0E0E95482
:100CB000FE4F80833BC0803B39F0D0F4803A09F48A
:100CC00077C0883A09F09CCF84E08093D9011092D4
:100CD000B6011092B501F0E0E0E009958091B50110
:100CE00081110FC081E08093B5011092950109C078
:100CF000803C09F4A8CF883C09F4A5CF883B09F0D3
:100D00007FCFE091B60181E08E0F8093B601F0E0D5
:100D1000EB56FE4F80818093BB009091B60180918D
:100D2000B50129C08091FE018093BB0085EC8093C2
:100D3000BC0066CF9091FD018091FC01981758F599
:100D4000E091FD0181E08E0F8093FD01F0E0E4521F
:100D5000FE4F8081E9CFE091FD0181E08E0F80930D
:100D6000FD018091BB00F0E0E452FE4F8083909142
:100D7000FD018091FC019817C8F285E8D8CFE09179
:100D8000FD0181E08E0F8093FD018091BB00F0E0BA
:100D9000E452FE4F80838091DB0181115ECF81E0C0
:100DA0008093DA0184EA8093BC001092D90128CFA5
:100DB00085EC8093BC001092D9018091D7018032DC
:100DC00030F4E091D701F0E0E954FE4F10826091D9
:100DD000D70170E087EB91E0F0E0E0E00995109238
:100DE000D7010ECF1092D80138CFE6E2F2E013829D
:100DF000128288EE93E0A0E0B0E084839583A6831E
:100E0000B78320E131E03183208325EC30E0358762
:100E1000248724EC30E03787268720EC30E0318BC4
:100E2000208B21EC30E0338B228B22EC30E0358BB1
:100E3000248B26EC30E0378B268B118E128E138E8E
:100E4000148EE3ECF2E01382128284839583A683EE
:100E5000B78382E291E091838083EFECF2E013822A
:100E6000128284E391E0918380838FE3848380E125
:100E7000818782E0828713860895789484B58260A2
:100E800084BD84B5816084BD85B5826085BD85B52E
:100E9000816085BD80916E00816080936E001092AC
:100EA0008100809181008260809381008091810027
:100EB00081608093810080918000816080938000B8
:100EC0008091B10084608093B1008091B000816016
:100ED0008093B00080917A00846080937A00809142
:100EE0007A00826080937A0080917A00816080939A
:100EF0007A0080917A00806880937A001092C10015
:100F0000E0913602F091370212E01083E091320254
:100F1000F09133021082E0913402F09135028FECAF
:100F2000808310923E02E0913A02F0913B0286E00B
:100F30008083E0913802F091390280818061808362
:100F4000E0913802F0913902808188608083E091DD
:100F50003802F0913902808180688083E091380204
:100F6000F091390280818F7D808360E08CE00E9467
:100F70000C0161E083E00E940C0160E087E00E94C8
:100F80000C0160E088E00E940C0160E08DE00E94AE
:100F90000C0160E082E00E940C0160E081E10E94AF
:100FA0000C018091D40288608093D4021093D70200
:100FB00062E370E080E090E00E94BF016091DA029D
:100FC0008FEC92E00E94A40368EE73E080E090E072
:100FD0000E94BF0160E38FEC92E00E946704CBE4C3
:100FE000D6E4CE010197F1F760E38FEC92E00E9426
:100FF00067042197F1F760E38FEC92E00E946704A9
:1010000083E592E00197F1F760E28FEC92E00E94B5
:1010100067046091D402606240E08FEC92E00E942D
:10102000800484E08093D50240E06CE08FEC92E095
:101030000E94800440E061E08FEC92E00E94800416
:10104000CBE3DFE1CE010197F1F71093D60240E048
:1010500066E08FEC92E00E94800440E062E08FEC5A
:1010600092E00E9480042197F1F780911702882373
:1010700009F49BC188E08093DA0260E08FEC92E093
:101080000E94A4038FE192E09093010180930001FC
:10109000809169008C7F816080936900E89A83E485
:1010A000882E44244A9493E0592E612C712C0BE332
:1010B0001FE120E0222E20E0322EC8EED3E099245A
:1010C00093943FE1A32E32E0B32E2FB7F894809192
:1010D0001E0290911F02A0912002B09121022FBF09
:1010E0008093190290931A02A0931B02B0931C02E2
:1010F00087E00E94B500892B49F0809117029091FA
:1011000018020196909318028093170288E00E94BB
:10111000B500892B49F08091170290911802019730
:1011200090931802809317028CE00E94B5006091A2
:10113000170270911802892B11F470E060E083E0CF
:101140000E943D0180927C0080917A0080648093AF
:101150007A0080917A0086FDFCCF90917800809192
:101160007900892798278927909316028093150282
:101170008DE00E94B50020911302892B09F418C15B
:1011800090921402211106C0D0931202C093110252
:101190009092130280911702882309F415C188E008
:1011A0008093DA0260E08FEC92E00E94A40380E07A
:1011B0000E94B9048091110290911202181619062A
:1011C0000CF409C18CE391E00E945A04609115026D
:1011D00070911602072E000C880B990B97FFF7C031
:1011E0000E949D048091190290911A02A0911B0205
:1011F000B0911C0240910D0250910E0260910F02BD
:1012000070911002841B950BA60BB70B893E93407F
:10121000A105B1050CF49EC0E89881EF91E0909390
:1012200001018093000160910B0270910C02072E66
:10123000000C880B990B2091190230911A024091F1
:101240001B0250911C02C0900D02D0900E02E09043
:101250000F02F09010022C193D094E095F090E94FF
:10126000000AA0E6BAEE0E941F0A6093070270937C
:1012700008028093090290930A0281E00E94B90457
:1012800080911102909112021816190684F082E6DC
:1012900091E00E945A0460910702709108028091C7
:1012A000090290910A0297FFA7C00E949D04109224
:1012B0000C0210920B028091190290911A02A091D7
:1012C0001B02B0911C0280930D0290930E02A0931A
:1012D0000F02B093100280911402882381F1809153
:1012E000150290911602092E000CAA0BBB0B40911F
:1012F0000702509108026091090270910A02841B52
:10130000950BA60BB70B409103025091040260911C
:10131000050270910602480F591F6A1F7B1F4093F8
:1013200003025093040260930502709306028093B7
:10133000FF0190930002A0930102B0930202B092C9
:101340000101A0920001809169008C7F81608093EF
:101350006900E89AA0911502B09116022FEF30E0D3
:101360000E945B0AA30192010E94000AB9018BE06E
:101370000E943D016EE170E080E090E00E94BF01BC
:1013800040E061E08FEC92E00E948004C801019788
:10139000F1F72114310409F498CE0E9466028823E3
:1013A00009F493CE0E94000090CE1092DA0265CE2E
:1013B00010921402222309F4EDCED0931202C093AE
:1013C000110210921302E6CE1092DA02EBCE4AE03E
:1013D0000E940C0407CF20911402222329F089E4F3
:1013E00091E00E945A04FECE0197909312028093DE
:1013F000110285E591E0F5CF4AE00E940C0457CF39
:10140000052E97FB1EF400940E94170A57FD07D083
:101410000E942A0A07FC03D04EF40C94170A509538
:101420004095309521953F4F4F4F5F4F08959095D0
:101430008095709561957F4F8F4F9F4F08950E94C3
:101440004C0AA59F900DB49F900DA49F800D911DF7
:1014500011240895A1E21A2EAA1BBB1BFD010DC089
:10146000AA1FBB1FEE1FFF1FA217B307E407F50754
:1014700020F0A21BB30BE40BF50B661F771F881F30
:10148000991F1A9469F760957095809590959B01C6
:10149000AC01BD01CF010895A29FB001B39FC0016F
:1014A000A39F700D811D1124911DB29F700D811D90
:1014B0001124911D08950E944C0AB7FF0895821BC4
:1014C000930B0895EE0FFF1F0590F491E02D099402
:0414D000F894FFCFBE
:1014D400F101F1010000400014005400000000007C
:1014E4009C02F2012902E9025A0238024C0200006D
:1014F40000007503480309043A0341033E033B0318
:10150400000000009704F20109040804496E707594
:10151400742053706565643A0050494420456E61F7
:10152400626C6564005049442044697361626C656F
:10153400640041637475616C2053706565643A009E
:00000001FF
